{
  "abi": [
    {
      "constant": true,
      "inputs": [],
      "name": "read",
      "outputs": [
        {
          "name": "",
          "type": "bytes32"
        }
      ],
      "payable": false,
      "stateMutability": "view",
      "type": "function",
      "signature": "0x57de26a4"
    }
  ],
  "address": "0x90eb6fc35B0f76378443E579599B9EC1AE1d32Ba",
  "args": [],
  "bytecode": "0x6080604052348015600f57600080fd5b5060878061001e6000396000f3fe6080604052348015600f57600080fd5b506004361060285760003560e01c806357de26a414602d575b600080fd5b60336045565b60408051918252519081900360200190f35b68094adc6a4ded9580009056fea265627a7a723058206a3371d1670edd2caf9230a18ffdd6845a430ab990f72aa8c479e880e0b264be64736f6c63430005090032"
}