{
  "abi": [
    {
      "inputs": [
        {
          "internalType": "address",
          "name": "starterPackAdmin",
          "type": "address"
        },
        {
          "internalType": "address",
          "name": "sandContractAddress",
          "type": "address"
        },
        {
          "internalType": "address",
          "name": "initialMetaTx",
          "type": "address"
        },
        {
          "internalType": "address payable",
          "name": "initialWalletAddress",
          "type": "address"
        },
        {
          "internalType": "address",
          "name": "medianizerContractAddress",
          "type": "address"
        },
        {
          "internalType": "address",
          "name": "daiTokenContractAddress",
          "type": "address"
        },
        {
          "internalType": "address",
          "name": "erc20GroupCatalystAddress",
          "type": "address"
        },
        {
          "internalType": "address",
          "name": "erc20GroupGemAddress",
          "type": "address"
        },
        {
          "internalType": "address",
          "name": "initialSigningWallet",
          "type": "address"
        },
        {
          "internalType": "uint256[]",
          "name": "initialStarterPackPrices",
          "type": "uint256[]"
        }
      ],
      "stateMutability": "nonpayable",
      "type": "constructor"
    },
    {
      "anonymous": false,
      "inputs": [
        {
          "indexed": false,
          "internalType": "address",
          "name": "oldAdmin",
          "type": "address"
        },
        {
          "indexed": false,
          "internalType": "address",
          "name": "newAdmin",
          "type": "address"
        }
      ],
      "name": "AdminChanged",
      "type": "event"
    },
    {
      "anonymous": false,
      "inputs": [
        {
          "indexed": false,
          "internalType": "address",
          "name": "metaTransactionProcessor",
          "type": "address"
        },
        {
          "indexed": false,
          "internalType": "bool",
          "name": "enabled",
          "type": "bool"
        }
      ],
      "name": "MetaTransactionProcessor",
      "type": "event"
    },
    {
      "anonymous": false,
      "inputs": [
        {
          "indexed": true,
          "internalType": "address",
          "name": "buyer",
          "type": "address"
        },
        {
          "components": [
            {
              "internalType": "uint256[]",
              "name": "catalystIds",
              "type": "uint256[]"
            },
            {
              "internalType": "uint256[]",
              "name": "catalystQuantities",
              "type": "uint256[]"
            },
            {
              "internalType": "uint256[]",
              "name": "gemIds",
              "type": "uint256[]"
            },
            {
              "internalType": "uint256[]",
              "name": "gemQuantities",
              "type": "uint256[]"
            },
            {
              "internalType": "uint256",
              "name": "nonce",
              "type": "uint256"
            }
          ],
          "indexed": false,
          "internalType": "struct StarterPackV1.Message",
          "name": "",
          "type": "tuple"
        },
        {
          "indexed": false,
          "internalType": "uint256",
          "name": "price",
          "type": "uint256"
        },
        {
          "indexed": false,
          "internalType": "address",
          "name": "token",
          "type": "address"
        },
        {
          "indexed": false,
          "internalType": "uint256",
          "name": "amountPaid",
          "type": "uint256"
        }
      ],
      "name": "Purchase",
      "type": "event"
    },
    {
      "anonymous": false,
      "inputs": [
        {
          "indexed": false,
          "internalType": "uint256[]",
          "name": "prices",
          "type": "uint256[]"
        }
      ],
      "name": "SetPrices",
      "type": "event"
    },
    {
      "inputs": [
        {
          "internalType": "address",
          "name": "newAdmin",
          "type": "address"
        }
      ],
      "name": "changeAdmin",
      "outputs": [],
      "stateMutability": "nonpayable",
      "type": "function"
    },
    {
      "inputs": [],
      "name": "getAdmin",
      "outputs": [
        {
          "internalType": "address",
          "name": "",
          "type": "address"
        }
      ],
      "stateMutability": "view",
      "type": "function"
    },
    {
      "inputs": [
        {
          "internalType": "uint256",
          "name": "sandAmount",
          "type": "uint256"
        }
      ],
      "name": "getEtherAmountWithSAND",
      "outputs": [
        {
          "internalType": "uint256",
          "name": "",
          "type": "uint256"
        }
      ],
      "stateMutability": "view",
      "type": "function"
    },
    {
      "inputs": [
        {
          "internalType": "address",
          "name": "_buyer",
          "type": "address"
        },
        {
          "internalType": "uint128",
          "name": "_queueId",
          "type": "uint128"
        }
      ],
      "name": "getNonceByBuyer",
      "outputs": [
        {
          "internalType": "uint128",
          "name": "",
          "type": "uint128"
        }
      ],
      "stateMutability": "view",
      "type": "function"
    },
    {
      "inputs": [],
      "name": "getSigningWallet",
      "outputs": [
        {
          "internalType": "address",
          "name": "",
          "type": "address"
        }
      ],
      "stateMutability": "view",
      "type": "function"
    },
    {
      "inputs": [],
      "name": "getStarterPackPrices",
      "outputs": [
        {
          "internalType": "uint256[]",
          "name": "prices",
          "type": "uint256[]"
        }
      ],
      "stateMutability": "view",
      "type": "function"
    },
    {
      "inputs": [],
      "name": "isDAIEnabled",
      "outputs": [
        {
          "internalType": "bool",
          "name": "",
          "type": "bool"
        }
      ],
      "stateMutability": "view",
      "type": "function"
    },
    {
      "inputs": [],
      "name": "isETHEnabled",
      "outputs": [
        {
          "internalType": "bool",
          "name": "",
          "type": "bool"
        }
      ],
      "stateMutability": "view",
      "type": "function"
    },
    {
      "inputs": [
        {
          "internalType": "address",
          "name": "who",
          "type": "address"
        }
      ],
      "name": "isMetaTransactionProcessor",
      "outputs": [
        {
          "internalType": "bool",
          "name": "",
          "type": "bool"
        }
      ],
      "stateMutability": "view",
      "type": "function"
    },
    {
      "inputs": [
        {
          "internalType": "address",
          "name": "buyer",
          "type": "address"
        },
        {
          "internalType": "uint256[]",
          "name": "catalystIds",
          "type": "uint256[]"
        },
        {
          "internalType": "uint256[]",
          "name": "catalystQuantities",
          "type": "uint256[]"
        },
        {
          "internalType": "uint256[]",
          "name": "gemIds",
          "type": "uint256[]"
        },
        {
          "internalType": "uint256[]",
          "name": "gemQuantities",
          "type": "uint256[]"
        },
        {
          "internalType": "uint256",
          "name": "nonce",
          "type": "uint256"
        },
        {
          "internalType": "bytes",
          "name": "signature",
          "type": "bytes"
        }
      ],
      "name": "isPurchaseValid",
      "outputs": [
        {
          "internalType": "bool",
          "name": "",
          "type": "bool"
        }
      ],
      "stateMutability": "nonpayable",
      "type": "function"
    },
    {
      "inputs": [],
      "name": "isSANDEnabled",
      "outputs": [
        {
          "internalType": "bool",
          "name": "",
          "type": "bool"
        }
      ],
      "stateMutability": "view",
      "type": "function"
    },
    {
      "inputs": [
        {
          "internalType": "address",
          "name": "buyer",
          "type": "address"
        },
        {
          "components": [
            {
              "internalType": "uint256[]",
              "name": "catalystIds",
              "type": "uint256[]"
            },
            {
              "internalType": "uint256[]",
              "name": "catalystQuantities",
              "type": "uint256[]"
            },
            {
              "internalType": "uint256[]",
              "name": "gemIds",
              "type": "uint256[]"
            },
            {
              "internalType": "uint256[]",
              "name": "gemQuantities",
              "type": "uint256[]"
            },
            {
              "internalType": "uint256",
              "name": "nonce",
              "type": "uint256"
            }
          ],
          "internalType": "struct StarterPackV1.Message",
          "name": "message",
          "type": "tuple"
        },
        {
          "internalType": "bytes",
          "name": "signature",
          "type": "bytes"
        }
      ],
      "name": "purchaseWithDAI",
      "outputs": [],
      "stateMutability": "nonpayable",
      "type": "function"
    },
    {
      "inputs": [
        {
          "internalType": "address",
          "name": "buyer",
          "type": "address"
        },
        {
          "components": [
            {
              "internalType": "uint256[]",
              "name": "catalystIds",
              "type": "uint256[]"
            },
            {
              "internalType": "uint256[]",
              "name": "catalystQuantities",
              "type": "uint256[]"
            },
            {
              "internalType": "uint256[]",
              "name": "gemIds",
              "type": "uint256[]"
            },
            {
              "internalType": "uint256[]",
              "name": "gemQuantities",
              "type": "uint256[]"
            },
            {
              "internalType": "uint256",
              "name": "nonce",
              "type": "uint256"
            }
          ],
          "internalType": "struct StarterPackV1.Message",
          "name": "message",
          "type": "tuple"
        },
        {
          "internalType": "bytes",
          "name": "signature",
          "type": "bytes"
        }
      ],
      "name": "purchaseWithETH",
      "outputs": [],
      "stateMutability": "payable",
      "type": "function"
    },
    {
      "inputs": [
        {
          "internalType": "address",
          "name": "buyer",
          "type": "address"
        },
        {
          "components": [
            {
              "internalType": "uint256[]",
              "name": "catalystIds",
              "type": "uint256[]"
            },
            {
              "internalType": "uint256[]",
              "name": "catalystQuantities",
              "type": "uint256[]"
            },
            {
              "internalType": "uint256[]",
              "name": "gemIds",
              "type": "uint256[]"
            },
            {
              "internalType": "uint256[]",
              "name": "gemQuantities",
              "type": "uint256[]"
            },
            {
              "internalType": "uint256",
              "name": "nonce",
              "type": "uint256"
            }
          ],
          "internalType": "struct StarterPackV1.Message",
          "name": "message",
          "type": "tuple"
        },
        {
          "internalType": "bytes",
          "name": "signature",
          "type": "bytes"
        }
      ],
      "name": "purchaseWithSand",
      "outputs": [],
      "stateMutability": "nonpayable",
      "type": "function"
    },
    {
      "inputs": [
        {
          "internalType": "address",
          "name": "",
          "type": "address"
        },
        {
          "internalType": "uint128",
          "name": "",
          "type": "uint128"
        }
      ],
      "name": "queuedNonces",
      "outputs": [
        {
          "internalType": "uint128",
          "name": "",
          "type": "uint128"
        }
      ],
      "stateMutability": "view",
      "type": "function"
    },
    {
      "inputs": [
        {
          "internalType": "bool",
          "name": "enabled",
          "type": "bool"
        }
      ],
      "name": "setDAIEnabled",
      "outputs": [],
      "stateMutability": "nonpayable",
      "type": "function"
    },
    {
      "inputs": [
        {
          "internalType": "bool",
          "name": "enabled",
          "type": "bool"
        }
      ],
      "name": "setETHEnabled",
      "outputs": [],
      "stateMutability": "nonpayable",
      "type": "function"
    },
    {
      "inputs": [
        {
          "internalType": "address",
          "name": "metaTransactionProcessor",
          "type": "address"
        },
        {
          "internalType": "bool",
          "name": "enabled",
          "type": "bool"
        }
      ],
      "name": "setMetaTransactionProcessor",
      "outputs": [],
      "stateMutability": "nonpayable",
      "type": "function"
    },
    {
      "inputs": [
        {
          "internalType": "uint256[]",
          "name": "prices",
          "type": "uint256[]"
        }
      ],
      "name": "setPrices",
      "outputs": [],
      "stateMutability": "nonpayable",
      "type": "function"
    },
    {
      "inputs": [
        {
          "internalType": "address payable",
          "name": "newWallet",
          "type": "address"
        }
      ],
      "name": "setReceivingWallet",
      "outputs": [],
      "stateMutability": "nonpayable",
      "type": "function"
    },
    {
      "inputs": [
        {
          "internalType": "bool",
          "name": "enabled",
          "type": "bool"
        }
      ],
      "name": "setSANDEnabled",
      "outputs": [],
      "stateMutability": "nonpayable",
      "type": "function"
    },
    {
      "inputs": [
        {
          "internalType": "address",
          "name": "newSigningWallet",
          "type": "address"
        }
      ],
      "name": "updateSigningWallet",
      "outputs": [],
      "stateMutability": "nonpayable",
      "type": "function"
    },
    {
      "inputs": [
        {
          "internalType": "address",
          "name": "to",
          "type": "address"
        },
        {
          "internalType": "uint256[]",
          "name": "catalystIds",
          "type": "uint256[]"
        },
        {
          "internalType": "uint256[]",
          "name": "gemIds",
          "type": "uint256[]"
        }
      ],
      "name": "withdrawAll",
      "outputs": [],
      "stateMutability": "nonpayable",
      "type": "function"
    }
  ],
  "address": "0x24AA958465EaD2c5C667aCBE616c89Cf7DBFfC44",
  "args": [
    "0xfB56eb456045e22c9e78C560E9572801b011e8Eb",
    "0x99b64F1008F5e9cDfDB2C87Cab22080564A0D48d",
    "0xB9A8b4Ea612969fdd5A5Ec3d070A1b305f0fecC5",
    "0xcbc70EcCd52bF3910CDC1455E6D2Bd45725F573D",
    "0x90eb6fc35B0f76378443E579599B9EC1AE1d32Ba",
    "0xC7907817DcaF30a923dbE213Aff68999361EDc01",
    "0xa3e2bf072F8855803255Bd28085e6223F291B183",
    "0xeC5a0bDb21c290000A9b607748eB0a50F4D12Ed1",
    "0xB7060D3FeCAC3AE1F0A0AA416E3e8E472257950e",
    [
      "69000000000000000000",
      "208000000000000000000",
      "694000000000000000000",
      "2778000000000000000000"
    ]
  ],
  "bytecode": "0x610120604052610e106009553480156200001857600080fd5b506040516200312a3803806200312a8339810160408190526200003b9162000281565b600280546001600160a01b0319166001600160a01b0384161790556200006388600162000102565b600880546001600160a01b03808a166001600160a01b03199283161790925560008054928d16929091169190911790556001600160601b031960608a811b821660805287811b821660a05286811b821660c05285811b821660e05284901b16610100528051620000db90600590602084019062000166565b508051620000f190600690602084019062000166565b5050505050505050505050620003b0565b6001600160a01b03821660009081526001602052604090819020805460ff1916831515179055517fb21eb88b4e33b3f1281830a7178d74d8aa73220416215726b68ae23d539515cb906200015a90849084906200037c565b60405180910390a15050565b828054828255906000526020600020908101928215620001a4579160200282015b82811115620001a457825182559160200191906001019062000187565b50620001b2929150620001b6565b5090565b620001d391905b80821115620001b25760008155600101620001bd565b90565b8051620001e38162000397565b92915050565b600082601f830112620001fa578081fd5b81516001600160401b038082111562000211578283fd5b6020808302604051828282010181811085821117156200022f578687fd5b6040528481529450818501925085820181870183018810156200025157600080fd5b600091505b848210156200027657805184529282019260019190910190820162000256565b505050505092915050565b6000806000806000806000806000806101408b8d031215620002a1578586fd5b8a51620002ae8162000397565b60208c0151909a50620002c18162000397565b60408c0151909950620002d48162000397565b60608c0151909850620002e78162000397565b60808c0151909750620002fa8162000397565b95506200030b8c60a08d01620001d6565b94506200031c8c60c08d01620001d6565b93506200032d8c60e08d01620001d6565b92506200033f8c6101008d01620001d6565b6101208c01519092506001600160401b038111156200035c578182fd5b6200036a8d828e01620001e9565b9150509295989b9194979a5092959850565b6001600160a01b039290921682521515602082015260400190565b6001600160a01b0381168114620003ad57600080fd5b50565b60805160601c60a05160601c60c05160601c60e05160601c6101005160601c612cf962000431600039806109605280610f5c52806112ff5280611471528061169e5250806108c75280610ec3528061126c52806113d45280611605525080610e9452806110235250806118285250806115d652806117655250612cf96000f3fe6080604052600436106101805760003560e01c80638a04af6a116100d6578063bf5c3e9f1161007f578063d1b8f6b311610059578063d1b8f6b314610402578063dc5074af14610422578063e97eb0a21461044257610180565b8063bf5c3e9f146103ad578063c96f8902146103cd578063caed3500146103ed57610180565b8063a7e30684116100b0578063a7e3068414610358578063b0e6bfaa1461036d578063b522ecff1461038d57610180565b80638a04af6a146102f85780638f28397014610318578063915c85131461033857610180565b80635d8e3021116101385780636e9960c3116101125780636e9960c31461029657806379cf92d3146102b85780637c53ec4c146102d857610180565b80635d8e3021146102345780635f995c2d1461026157806369bdf25d1461027457610180565b80634a253778116101695780634a253778146101d25780634d08cbc1146101e757806358bc29441461021457610180565b80633b7c4c1514610185578063427b8d34146101a7575b600080fd5b34801561019157600080fd5b506101a56101a036600461235c565b610462565b005b3480156101b357600080fd5b506101bc6104cd565b6040516101c99190612712565b60405180910390f35b3480156101de57600080fd5b506101bc6104dd565b3480156101f357600080fd5b50610207610202366004612248565b6104eb565b6040516101c99190612b9d565b34801561022057600080fd5b506101a561022f366004611fe7565b61052a565b34801561024057600080fd5b5061025461024f3660046123ac565b610583565b6040516101c99190612bba565b6101a561026f3660046121a2565b6105be565b34801561028057600080fd5b50610289610a82565b6040516101c991906126ff565b3480156102a257600080fd5b506102ab610ada565b6040516101c9919061257c565b3480156102c457600080fd5b506101a56102d3366004612289565b610ae9565b3480156102e457600080fd5b506101a56102f336600461235c565b610b73565b34801561030457600080fd5b506101a561031336600461216a565b610bb0565b34801561032457600080fd5b506101a5610333366004611fe7565b610be8565b34801561034457600080fd5b506101bc610353366004612083565b610c88565b34801561036457600080fd5b506101bc610d5b565b34801561037957600080fd5b506101a56103883660046121a2565b610d64565b34801561039957600080fd5b506101a56103a8366004611fe7565b611063565b3480156103b957600080fd5b506102076103c8366004612248565b6110e2565b3480156103d957600080fd5b506101a56103e8366004612003565b611111565b3480156103f957600080fd5b506102ab6114ed565b34801561040e57600080fd5b506101a561041d3660046121a2565b6114fc565b34801561042e57600080fd5b506101bc61043d366004611fe7565b6117a4565b34801561044e57600080fd5b506101a561045d36600461235c565b6117c2565b6000546001600160a01b031633146104955760405162461bcd60e51b815260040161048c90612ad1565b60405180910390fd5b6004805491151562010000027fffffffffffffffffffffffffffffffffffffffffffffffffffffffffff00ffff909216919091179055565b60045462010000900460ff165b90565b600454610100900460ff1690565b6001600160a01b03821660009081526003602090815260408083206fffffffffffffffffffffffffffffffff8086168552925290912054165b92915050565b6000546001600160a01b031633146105545760405162461bcd60e51b815260040161048c90612998565b6002805473ffffffffffffffffffffffffffffffffffffffff19166001600160a01b0392909216919091179055565b60008061058e611823565b90506105b7816105ab85663328b944c4000063ffffffff6118bd16565b9063ffffffff6118f816565b9392505050565b336001600160a01b03851614806105e457503360009081526001602052604090205460ff165b6106005760405162461bcd60e51b815260040161048c90612a2c565b600454610100900460ff166106275760405162461bcd60e51b815260040161048c906128bc565b6001600160a01b03841661064d5760405162461bcd60e51b815260040161048c90612772565b6001600160a01b0384163014156106765760405162461bcd60e51b815260040161048c90612b08565b6107b2846106848580612bc3565b808060200260200160405190810160405280939291908181526020018383602002808284376000920191909152506106c3925050506020870187612bc3565b80806020026020016040519081016040528093929190818152602001838360200280828437600092019190915250610702925050506040880188612bc3565b80806020026020016040519081016040528093929190818152602001838360200280828437600092019190915250610741925050506060890189612bc3565b8080602002602001604051908101604052809392919081815260200183836020028082843760009201919091525050604080516020601f8c018190048102820181019092528a815260808d0135935091508a908a9081908401838280828437600092019190915250610c8892505050565b6107ce5760405162461bcd60e51b815260040161048c9061292a565b60006108536107dd8580612bc3565b8080602002602001604051908101604052809392919081815260200183836020028082843760009201919091525061081c925050506020870187612bc3565b8080602002602001604051908101604052809392919081815260200183836020028082843760009201919091525061190b92505050565b9050600061086082610583565b9050803410156108825760405162461bcd60e51b815260040161048c906127a9565b6008546040516001600160a01b039091169082156108fc029083906000818181858888f193505050501580156108bc573d6000803e3d6000fd5b506001600160a01b037f0000000000000000000000000000000000000000000000000000000000000000166317fad7fc30886108f88980612bc3565b61090560208c018c612bc3565b6040518763ffffffff1660e01b8152600401610926969594939291906125ce565b600060405180830381600087803b15801561094057600080fd5b505af1158015610954573d6000803e3d6000fd5b50506001600160a01b037f00000000000000000000000000000000000000000000000000000000000000001691506317fad7fc9050308861099860408a018a612bc3565b6109a560608c018c612bc3565b6040518763ffffffff1660e01b81526004016109c6969594939291906125ce565b600060405180830381600087803b1580156109e057600080fd5b505af11580156109f4573d6000803e3d6000fd5b50505050856001600160a01b03167fdfdb2e8aa552e0517bf744153975973b0beb2bedf0e81bbf58d7744b738197b88684600085604051610a389493929190612b65565b60405180910390a23481900315610a7a5760405133903483900380156108fc02916000818181858888f19350505050158015610a78573d6000803e3d6000fd5b505b505050505050565b60606005805480602002602001604051908101604052809291908181526020018280548015610ad057602002820191906000526020600020905b815481526020019060010190808311610abc575b5050505050905090565b6000546001600160a01b031690565b6000546001600160a01b03163314610b135760405162461bcd60e51b815260040161048c90612ad1565b60058054610b2391600691611e17565b50610b3060058383611e67565b50426007556040517f12d1878396fba767a3caf43b64d874fc1f51797ce34a657529f2e54b7813e8cc90610b6790849084906126e3565b60405180910390a15050565b6000546001600160a01b03163314610b9d5760405162461bcd60e51b815260040161048c90612ad1565b6004805460ff1916911515919091179055565b6000546001600160a01b03163314610bda5760405162461bcd60e51b815260040161048c906129cf565b610be48282611993565b5050565b6000546001600160a01b03163314610c125760405162461bcd60e51b815260040161048c90612a63565b6000546040517f7e644d79422f17c01e4894b5f4f588d331ebfa28653d42ae832dc59e38c9798f91610c51916001600160a01b03909116908490612590565b60405180910390a16000805473ffffffffffffffffffffffffffffffffffffffff19166001600160a01b0392909216919091179055565b6000610c9488846119e9565b610cb05760405162461bcd60e51b815260040161048c90612961565b610cbb878786611ac0565b610cd75760405162461bcd60e51b815260040161048c90612817565b60008787878787604051602001610cf2959493929190612514565b6040516020818303038152906040528051906020012090506000610d3c82604051602001610d20919061254b565b6040516020818303038152906040528051906020012085611b7c565b6002546001600160a01b039081169116149a9950505050505050505050565b60045460ff1690565b336001600160a01b0385161480610d8a57503360009081526001602052604090205460ff165b610da65760405162461bcd60e51b815260040161048c90612a2c565b60045462010000900460ff16610dce5760405162461bcd60e51b815260040161048c9061273b565b6001600160a01b038416610df45760405162461bcd60e51b815260040161048c90612772565b6001600160a01b038416301415610e1d5760405162461bcd60e51b815260040161048c90612b08565b610e2b846106848580612bc3565b610e475760405162461bcd60e51b815260040161048c9061292a565b6000610e566107dd8580612bc3565b90506000610e7d670de0b6b3a76400006105ab84663328b944c4000063ffffffff6118bd16565b600854909150610eb99087906001600160a01b03167f000000000000000000000000000000000000000000000000000000000000000084611c37565b6001600160a01b037f0000000000000000000000000000000000000000000000000000000000000000166317fad7fc3088610ef48980612bc3565b610f0160208c018c612bc3565b6040518763ffffffff1660e01b8152600401610f22969594939291906125ce565b600060405180830381600087803b158015610f3c57600080fd5b505af1158015610f50573d6000803e3d6000fd5b50506001600160a01b037f00000000000000000000000000000000000000000000000000000000000000001691506317fad7fc90503088610f9460408a018a612bc3565b610fa160608c018c612bc3565b6040518763ffffffff1660e01b8152600401610fc2969594939291906125ce565b600060405180830381600087803b158015610fdc57600080fd5b505af1158015610ff0573d6000803e3d6000fd5b50505050856001600160a01b03167fdfdb2e8aa552e0517bf744153975973b0beb2bedf0e81bbf58d7744b738197b886847f0000000000000000000000000000000000000000000000000000000000000000856040516110539493929190612b65565b60405180910390a2505050505050565b6001600160a01b0381166110895760405162461bcd60e51b815260040161048c906128f3565b6000546001600160a01b031633146110b35760405162461bcd60e51b815260040161048c90612ad1565b6008805473ffffffffffffffffffffffffffffffffffffffff19166001600160a01b0392909216919091179055565b60036020908152600092835260408084209091529082529020546fffffffffffffffffffffffffffffffff1681565b6000546001600160a01b0316331461113b5760405162461bcd60e51b815260040161048c90612ad1565b60608367ffffffffffffffff8111801561115457600080fd5b5060405190808252806020026020018201604052801561117e578160200160208202803683370190505b50905060005b848110156111b9573082828151811061119957fe5b6001600160a01b0390921660209283029190910190910152600101611184565b5060608267ffffffffffffffff811180156111d357600080fd5b506040519080825280602002602001820160405280156111fd578160200160208202803683370190505b50905060005b83811015611238573082828151811061121857fe5b6001600160a01b0390921660209283029190910190910152600101611203565b506040517f4e1273f40000000000000000000000000000000000000000000000000000000081526060906001600160a01b037f00000000000000000000000000000000000000000000000000000000000000001690634e1273f4906112a59086908b908b90600401612681565b60006040518083038186803b1580156112bd57600080fd5b505afa1580156112d1573d6000803e3d6000fd5b505050506040513d6000823e601f3d908101601f191682016040526112f991908101906122c9565b905060607f00000000000000000000000000000000000000000000000000000000000000006001600160a01b0316634e1273f48488886040518463ffffffff1660e01b815260040161134d93929190612681565b60006040518083038186803b15801561136557600080fd5b505afa158015611379573d6000803e3d6000fd5b505050506040513d6000823e601f3d908101601f191682016040526113a191908101906122c9565b6040517f17fad7fc0000000000000000000000000000000000000000000000000000000081529091506001600160a01b037f000000000000000000000000000000000000000000000000000000000000000016906317fad7fc906114119030908d908d908d90899060040161261b565b600060405180830381600087803b15801561142b57600080fd5b505af115801561143f573d6000803e3d6000fd5b50506040517f17fad7fc0000000000000000000000000000000000000000000000000000000081526001600160a01b037f00000000000000000000000000000000000000000000000000000000000000001692506317fad7fc91506114b09030908d908b908b90889060040161261b565b600060405180830381600087803b1580156114ca57600080fd5b505af11580156114de573d6000803e3d6000fd5b50505050505050505050505050565b6002546001600160a01b031690565b336001600160a01b038516148061152257503360009081526001602052604090205460ff165b61153e5760405162461bcd60e51b815260040161048c90612a2c565b60045460ff166115605760405162461bcd60e51b815260040161048c9061284e565b6001600160a01b0384166115865760405162461bcd60e51b815260040161048c90612772565b611594846106848580612bc3565b6115b05760405162461bcd60e51b815260040161048c9061292a565b60006115bf6107dd8580612bc3565b6008549091506115fb9086906001600160a01b03167f000000000000000000000000000000000000000000000000000000000000000084611c37565b6001600160a01b037f0000000000000000000000000000000000000000000000000000000000000000166317fad7fc30876116368880612bc3565b61164360208b018b612bc3565b6040518763ffffffff1660e01b8152600401611664969594939291906125ce565b600060405180830381600087803b15801561167e57600080fd5b505af1158015611692573d6000803e3d6000fd5b50506001600160a01b037f00000000000000000000000000000000000000000000000000000000000000001691506317fad7fc905030876116d66040890189612bc3565b6116e360608b018b612bc3565b6040518763ffffffff1660e01b8152600401611704969594939291906125ce565b600060405180830381600087803b15801561171e57600080fd5b505af1158015611732573d6000803e3d6000fd5b50505050846001600160a01b03167fdfdb2e8aa552e0517bf744153975973b0beb2bedf0e81bbf58d7744b738197b885837f0000000000000000000000000000000000000000000000000000000000000000856040516117959493929190612b65565b60405180910390a25050505050565b6001600160a01b031660009081526001602052604090205460ff1690565b6000546001600160a01b031633146117ec5760405162461bcd60e51b815260040161048c90612ad1565b60048054911515610100027fffffffffffffffffffffffffffffffffffffffffffffffffffffffffffff00ff909216919091179055565b6000807f00000000000000000000000000000000000000000000000000000000000000006001600160a01b03166357de26a46040518163ffffffff1660e01b815260040160206040518083038186803b15801561187f57600080fd5b505afa158015611893573d6000803e3d6000fd5b505050506040513d601f19601f820116820180604052508101906118b79190612394565b91505090565b6000826118cc57506000610524565b50818102818382816118da57fe5b04146105245760405162461bcd60e51b815260040161048c90612a9a565b600081838161190357fe5b049392505050565b60006060611917611cf2565b90506000805b855181101561198a57600086828151811061193457fe5b60200260200101519050600086838151811061194c57fe5b6020026020010151905061197c8186848151811061196657fe5b60200260200101516118bd90919063ffffffff16565b90930192505060010161191d565b50949350505050565b6001600160a01b03821660009081526001602052604090819020805460ff1916831515179055517fb21eb88b4e33b3f1281830a7178d74d8aa73220416215726b68ae23d539515cb90610b679084908490612666565b6001600160a01b038216600090815260036020908152604080832070010000000000000000000000000000000085046fffffffffffffffffffffffffffffffff81811686529190935290832054848216911680821415611ab4576001600160a01b03861660009081526003602090815260408083206fffffffffffffffffffffffffffffffff9687168452909152902080547fffffffffffffffffffffffffffffffff0000000000000000000000000000000016600192830190941693909317909255509050610524565b50600095945050505050565b60008080805b8551811015611b3f576004878281518110611add57fe5b602002602001015110611b025760405162461bcd60e51b815260040161048c90612885565b868181518110611b0e57fe5b6020026020010151600101868281518110611b2557fe5b602002602001015102830192508080600101915050611ac6565b5060005b8451811015611b7157848181518110611b5857fe5b6020026020010151820191508080600101915050611b43565b501115949350505050565b60008151604114611b8c57600080fd5b60208201516040830151606084015160001a601b811015611bab57601b015b8060ff16601b1480611bc057508060ff16601c145b611bc957600080fd5b60018682858560405160008152602001604052604051611bec949392919061271d565b6020604051602081039080840390855afa158015611c0e573d6000803e3d6000fd5b5050604051601f1901519450506001600160a01b038416611c2e57600080fd5b50505092915050565b6040517f23b872dd000000000000000000000000000000000000000000000000000000008152829082906001600160a01b038316906323b872dd90611c84908990899086906004016125aa565b602060405180830381600087803b158015611c9e57600080fd5b505af1158015611cb2573d6000803e3d6000fd5b505050506040513d601f19601f82011682018060405250810190611cd69190612378565b610a7a5760405162461bcd60e51b815260040161048c906127e0565b60608060075460001415611d58576005805480602002602001604051908101604052809291908181526020018280548015611d4c57602002820191906000526020600020905b815481526020019060010190808311611d38575b50505050509050611e12565b600754610e1001421115611dbe5760006007556005805460408051602080840282018101909252828152929190830182828015611d4c5760200282019190600052602060002090815481526020019060010190808311611d385750505050509050611e12565b6006805480602002602001604051908101604052809291908181526020018280548015611e0a57602002820191906000526020600020905b815481526020019060010190808311611df6575b505050505090505b905090565b828054828255906000526020600020908101928215611e575760005260206000209182015b82811115611e57578254825591600101919060010190611e3c565b50611e63929150611ea2565b5090565b828054828255906000526020600020908101928215611e57579160200282015b82811115611e57578235825591602001919060010190611e87565b6104da91905b80821115611e635760008155600101611ea8565b803561052481612c9d565b60008083601f840112611ed8578182fd5b50813567ffffffffffffffff811115611eef578182fd5b6020830191508360208083028501011115611f0957600080fd5b9250929050565b600082601f830112611f20578081fd5b8135611f33611f2e82612c35565b612c0e565b818152915060208083019084810181840286018201871015611f5457600080fd5b60005b84811015611f7357813584529282019290820190600101611f57565b505050505092915050565b600082601f830112611f8e578081fd5b813567ffffffffffffffff811115611fa4578182fd5b611fb76020601f19601f84011601612c0e565b9150808252836020828501011115611fce57600080fd5b8060208401602084013760009082016020015292915050565b600060208284031215611ff8578081fd5b81356105b781612c9d565b60008060008060006060868803121561201a578081fd5b853561202581612c9d565b9450602086013567ffffffffffffffff80821115612041578283fd5b61204d89838a01611ec7565b90965094506040880135915080821115612065578283fd5b5061207288828901611ec7565b969995985093965092949392505050565b600080600080600080600060e0888a03121561209d578182fd5b6120a78989611ebc565b9650602088013567ffffffffffffffff808211156120c3578384fd5b6120cf8b838c01611f10565b975060408a01359150808211156120e4578384fd5b6120f08b838c01611f10565b965060608a0135915080821115612105578384fd5b6121118b838c01611f10565b955060808a0135915080821115612126578384fd5b6121328b838c01611f10565b945060a08a0135935060c08a013591508082111561214e578283fd5b5061215b8a828b01611f7e565b91505092959891949750929550565b6000806040838503121561217c578182fd5b823561218781612c9d565b9150602083013561219781612cb5565b809150509250929050565b600080600080606085870312156121b7578384fd5b84356121c281612c9d565b9350602085013567ffffffffffffffff808211156121de578485fd5b81870160a0818a0312156121f0578586fd5b94506040870135915080821115612205578384fd5b81870188601f820112612216578485fd5b8035925081831115612226578485fd5b886020848301011115612237578485fd5b959894975050602090940194505050565b6000806040838503121561225a578182fd5b823561226581612c9d565b915060208301356fffffffffffffffffffffffffffffffff81168114612197578182fd5b6000806020838503121561229b578182fd5b823567ffffffffffffffff8111156122b1578283fd5b6122bd85828601611ec7565b90969095509350505050565b600060208083850312156122db578182fd5b825167ffffffffffffffff8111156122f1578283fd5b80840185601f820112612302578384fd5b80519150612312611f2e83612c35565b828152838101908285018585028401860189101561232e578687fd5b8693505b84841015612350578051835260019390930192918501918501612332565b50979650505050505050565b60006020828403121561236d578081fd5b81356105b781612cb5565b600060208284031215612389578081fd5b81516105b781612cb5565b6000602082840312156123a5578081fd5b5051919050565b6000602082840312156123bd578081fd5b5035919050565b60008284527f07ffffffffffffffffffffffffffffffffffffffffffffffffffffffffffffff8311156123f5578081fd5b6020830280836020870137939093016020019283525090919050565b6000815180845260208085019450808401835b8381101561244057815187529582019590820190600101612424565b509495945050505050565b8051600090602080840183831561244057815187529582019590820190600101612424565b600061247c8283612c55565b60a0855261248e60a0860182846123c4565b61249b6020860186612c55565b9350915085810360208701526124b28184846123c4565b6124bf6040870187612c55565b9450925086810360408801526124d68185856123c4565b9150506124e66060860186612c55565b9350915085810360608701526124fd8184846123c4565b608086013560808801528094505050505092915050565b600061253b61253561252f612529858b61244b565b8961244b565b8761244b565b8561244b565b9283525050602001949350505050565b7f19457468657265756d205369676e6564204d6573736167653a0a3332000000008152601c810191909152603c0190565b6001600160a01b0391909116815260200190565b6001600160a01b0392831681529116602082015260400190565b6001600160a01b039384168152919092166020820152604081019190915260600190565b60006001600160a01b038089168352808816602084015250608060408301526125fb6080830186886123c4565b828103606084015261260e8185876123c4565b9998505050505050505050565b60006001600160a01b038088168352808716602084015250608060408301526126486080830185876123c4565b828103606084015261265a8185612411565b98975050505050505050565b6001600160a01b039290921682521515602082015260400190565b604080825284519082018190526000906020906060840190828801845b828110156126c35781516001600160a01b03168452928401929084019060010161269e565b505050838103828501526126d88186886123c4565b979650505050505050565b6000602082526126f76020830184866123c4565b949350505050565b6000602082526105b76020830184612411565b901515815260200190565b93845260ff9290921660208401526040830152606082015260800190565b60208082526012908201527f4441495f49535f4e4f545f454e41424c45440000000000000000000000000000604082015260600190565b60208082526018908201527f44455354494e4154494f4e5f5a45524f5f414444524553530000000000000000604082015260600190565b60208082526015908201527f4e4f545f454e4f5547485f45544845525f53454e540000000000000000000000604082015260600190565b60208082526017908201527f5041594d454e545f5452414e534645525f4641494c4544000000000000000000604082015260600190565b6020808252600c908201527f494e56414c49445f47454d530000000000000000000000000000000000000000604082015260600190565b60208082526013908201527f53414e445f49535f4e4f545f454e41424c454400000000000000000000000000604082015260600190565b60208082526010908201527f49445f4f55545f4f465f424f554e445300000000000000000000000000000000604082015260600190565b60208082526014908201527f45544845525f49535f4e4f545f454e41424c4544000000000000000000000000604082015260600190565b60208082526013908201527f57414c4c45545f5a45524f5f4144445245535300000000000000000000000000604082015260600190565b60208082526010908201527f494e56414c49445f505552434841534500000000000000000000000000000000604082015260600190565b6020808252600d908201527f494e56414c49445f4e4f4e434500000000000000000000000000000000000000604082015260600190565b60208082526010908201527f53454e4445525f4e4f545f41444d494e00000000000000000000000000000000604082015260600190565b6020808252602e908201527f6f6e6c792061646d696e2063616e207365747570206d6574615472616e73616360408201527f74696f6e50726f636573736f7273000000000000000000000000000000000000606082015260800190565b6020808252600e908201527f494e56414c49445f53454e444552000000000000000000000000000000000000604082015260600190565b6020808252601b908201527f6f6e6c792061646d696e2063616e206368616e67652061646d696e0000000000604082015260600190565b60208082526008908201527f6f766572666c6f77000000000000000000000000000000000000000000000000604082015260600190565b6020808252600e908201527f4e4f545f415554484f52495a4544000000000000000000000000000000000000604082015260600190565b60208082526022908201527f44455354494e4154494f4e5f535441525445525041434b56315f434f4e54524160408201527f4354000000000000000000000000000000000000000000000000000000000000606082015260800190565b600060808252612b786080830187612470565b6020830195909552506001600160a01b03929092166040830152606090910152919050565b6fffffffffffffffffffffffffffffffff91909116815260200190565b90815260200190565b6000808335601e19843603018112612bd9578283fd5b8084018035925067ffffffffffffffff831115612bf4578384fd5b6020810193505050602081023603821315611f0957600080fd5b60405181810167ffffffffffffffff81118282101715612c2d57600080fd5b604052919050565b600067ffffffffffffffff821115612c4b578081fd5b5060209081020190565b6000808335601e19843603018112612c6b578283fd5b830160208101925035905067ffffffffffffffff811115612c8b57600080fd5b602081023603831315611f0957600080fd5b6001600160a01b0381168114612cb257600080fd5b50565b8015158114612cb257600080fdfea2646970667358221220d67796ad1edd647e1ab6cc97fbb5803b4b873c6cce615b102a458ae5013809a864736f6c63430006050033"
}